{
  "_format": "hh-sol-artifact-1",
  "contractName": "Upload",
  "sourceName": "contracts/Upload.sol",
  "abi": [
    {
      "inputs": [
        {
          "internalType": "uint256",
          "name": "_id",
          "type": "uint256"
        },
        {
          "internalType": "uint256",
          "name": "amt",
          "type": "uint256"
        }
      ],
      "name": "acceptRequest",
      "outputs": [],
      "stateMutability": "nonpayable",
      "type": "function"
    },
    {
      "inputs": [
        {
          "internalType": "address",
          "name": "_user",
          "type": "address"
        },
        {
          "internalType": "string",
          "name": "url",
          "type": "string"
        }
      ],
      "name": "add",
      "outputs": [],
      "stateMutability": "nonpayable",
      "type": "function"
    },
    {
      "inputs": [
        {
          "internalType": "uint256",
          "name": "_id",
          "type": "uint256"
        },
        {
          "internalType": "string",
          "name": "_name",
          "type": "string"
        },
        {
          "internalType": "uint256",
          "name": "_price",
          "type": "uint256"
        },
        {
          "internalType": "string",
          "name": "_pic",
          "type": "string"
        },
        {
          "internalType": "uint256",
          "name": "_wdrive",
          "type": "uint256"
        }
      ],
      "name": "addVehicle",
      "outputs": [],
      "stateMutability": "nonpayable",
      "type": "function"
    },
    {
      "inputs": [
        {
          "internalType": "address",
          "name": "user",
          "type": "address"
        }
      ],
      "name": "allow",
      "outputs": [],
      "stateMutability": "nonpayable",
      "type": "function"
    },
    {
      "inputs": [
        {
          "internalType": "address",
          "name": "user",
          "type": "address"
        }
      ],
      "name": "disallow",
      "outputs": [],
      "stateMutability": "nonpayable",
      "type": "function"
    },
    {
      "inputs": [
        {
          "internalType": "address",
          "name": "_user",
          "type": "address"
        }
      ],
      "name": "display",
      "outputs": [
        {
          "internalType": "string[]",
          "name": "",
          "type": "string[]"
        }
      ],
      "stateMutability": "view",
      "type": "function"
    },
    {
      "inputs": [],
      "name": "getBalance",
      "outputs": [
        {
          "internalType": "uint256",
          "name": "",
          "type": "uint256"
        }
      ],
      "stateMutability": "view",
      "type": "function"
    },
    {
      "inputs": [
        {
          "internalType": "uint256",
          "name": "",
          "type": "uint256"
        }
      ],
      "name": "onSale",
      "outputs": [
        {
          "internalType": "uint256",
          "name": "id",
          "type": "uint256"
        },
        {
          "internalType": "string",
          "name": "name",
          "type": "string"
        },
        {
          "internalType": "uint256",
          "name": "price",
          "type": "uint256"
        },
        {
          "internalType": "string",
          "name": "pic",
          "type": "string"
        },
        {
          "internalType": "uint256",
          "name": "wdrive",
          "type": "uint256"
        },
        {
          "internalType": "bool",
          "name": "avail",
          "type": "bool"
        },
        {
          "internalType": "address",
          "name": "beingSoldBy",
          "type": "address"
        }
      ],
      "stateMutability": "view",
      "type": "function"
    },
    {
      "inputs": [
        {
          "internalType": "uint256",
          "name": "_id",
          "type": "uint256"
        },
        {
          "internalType": "uint256",
          "name": "cost",
          "type": "uint256"
        }
      ],
      "name": "raiseRequest",
      "outputs": [],
      "stateMutability": "payable",
      "type": "function"
    },
    {
      "inputs": [],
      "name": "shareAccess",
      "outputs": [
        {
          "components": [
            {
              "internalType": "address",
              "name": "user",
              "type": "address"
            },
            {
              "internalType": "bool",
              "name": "access",
              "type": "bool"
            }
          ],
          "internalType": "struct Upload.Access[]",
          "name": "",
          "type": "tuple[]"
        }
      ],
      "stateMutability": "view",
      "type": "function"
    },
    {
      "inputs": [
        {
          "internalType": "uint256",
          "name": "_id",
          "type": "uint256"
        }
      ],
      "name": "viewHistory",
      "outputs": [
        {
          "internalType": "address[]",
          "name": "",
          "type": "address[]"
        }
      ],
      "stateMutability": "view",
      "type": "function"
    },
    {
      "inputs": [],
      "name": "viewIncoming",
      "outputs": [
        {
          "components": [
            {
              "internalType": "uint256",
              "name": "id",
              "type": "uint256"
            },
            {
              "internalType": "address",
              "name": "buyerName",
              "type": "address"
            },
            {
              "internalType": "uint256",
              "name": "price",
              "type": "uint256"
            },
            {
              "internalType": "bool",
              "name": "accepted",
              "type": "bool"
            }
          ],
          "internalType": "struct Upload.Pair[]",
          "name": "",
          "type": "tuple[]"
        }
      ],
      "stateMutability": "view",
      "type": "function"
    },
    {
      "inputs": [],
      "name": "viewLatestTransac",
      "outputs": [
        {
          "components": [
            {
              "internalType": "uint256",
              "name": "id",
              "type": "uint256"
            },
            {
              "internalType": "string",
              "name": "date",
              "type": "string"
            },
            {
              "internalType": "uint256",
              "name": "price",
              "type": "uint256"
            },
            {
              "internalType": "address",
              "name": "buyer",
              "type": "address"
            },
            {
              "internalType": "address",
              "name": "seller",
              "type": "address"
            }
          ],
          "internalType": "struct Upload.Cert",
          "name": "",
          "type": "tuple"
        }
      ],
      "stateMutability": "view",
      "type": "function"
    },
    {
      "inputs": [],
      "name": "viewVehicles",
      "outputs": [
        {
          "components": [
            {
              "internalType": "uint256",
              "name": "id",
              "type": "uint256"
            },
            {
              "internalType": "string",
              "name": "name",
              "type": "string"
            },
            {
              "internalType": "uint256",
              "name": "price",
              "type": "uint256"
            },
            {
              "internalType": "string",
              "name": "pic",
              "type": "string"
            },
            {
              "internalType": "uint256",
              "name": "wdrive",
              "type": "uint256"
            },
            {
              "internalType": "bool",
              "name": "avail",
              "type": "bool"
            },
            {
              "internalType": "address",
              "name": "beingSoldBy",
              "type": "address"
            }
          ],
          "internalType": "struct Upload.Vehicle[]",
          "name": "",
          "type": "tuple[]"
        }
      ],
      "stateMutability": "view",
      "type": "function"
    }
  ],
  "bytecode": "0x608060405234801561001057600080fd5b50612d63806100206000396000f3fe6080604052600436106100dd5760003560e01c8063bc8bef811161007f578063de67388811610059578063de673888146102a5578063e0dd8cfe146102ce578063eb39113f146102f9578063ff9913e814610336576100dd565b8063bc8bef8114610233578063c7e19bce1461025e578063cdae6ec514610289576100dd565b806397ed879a116100bb57806397ed879a14610161578063a9ed9cb81461018a578063ad2b46a8146101b3578063b43a76f1146101f0576100dd565b806312065fe0146100e257806336d6da551461010d5780638bbc94f614610136575b600080fd5b3480156100ee57600080fd5b506100f761035f565b6040516101049190611ed1565b60405180910390f35b34801561011957600080fd5b50610134600480360381019061012f91906120a4565b61037a565b005b34801561014257600080fd5b5061014b6103f7565b604051610158919061223d565b60405180910390f35b34801561016d57600080fd5b506101886004803603810190610183919061228b565b610518565b005b34801561019657600080fd5b506101b160048036038101906101ac919061233e565b6106cb565b005b3480156101bf57600080fd5b506101da60048036038101906101d5919061236b565b6108ee565b6040516101e79190612447565b60405180910390f35b3480156101fc57600080fd5b506102176004803603810190610212919061236b565b61098f565b60405161022a979695949392919061250f565b60405180910390f35b34801561023f57600080fd5b50610248610b1e565b604051610255919061266a565b60405180910390f35b34801561026a57600080fd5b50610273610c27565b604051610280919061274c565b60405180910390f35b6102a3600480360381019061029e919061276e565b610e44565b005b3480156102b157600080fd5b506102cc60048036038101906102c7919061276e565b610ffd565b005b3480156102da57600080fd5b506102e3611549565b6040516102f09190612913565b60405180910390f35b34801561030557600080fd5b50610320600480360381019061031b919061233e565b61175b565b60405161032d91906129f7565b60405180910390f35b34801561034257600080fd5b5061035d6004803603810190610358919061233e565b611972565b005b6000670de0b6b3a7640000476103759190612a77565b905090565b600360008373ffffffffffffffffffffffffffffffffffffffff1673ffffffffffffffffffffffffffffffffffffffff168152602001908152602001600020819080600181540180825580915050600190039060005260206000200160009091909190915090805190602001906103f2929190611dba565b505050565b6060600160003373ffffffffffffffffffffffffffffffffffffffff1673ffffffffffffffffffffffffffffffffffffffff168152602001908152602001600020805480602002602001604051908101604052809291908181526020016000905b8282101561050f5783829060005260206000209060040201604051806080016040529081600082015481526020016001820160009054906101000a900473ffffffffffffffffffffffffffffffffffffffff1673ffffffffffffffffffffffffffffffffffffffff1673ffffffffffffffffffffffffffffffffffffffff168152602001600282015481526020016003820160009054906101000a900460ff16151515158152505081526020019060010190610458565b50505050905090565b60006040518060e001604052808781526020018681526020018581526020018481526020018381526020016001151581526020013373ffffffffffffffffffffffffffffffffffffffff1681525090806001815401808255809150506001900390600052602060002090600602016000909190919091506000820151816000015560208201518160010190805190602001906105b5929190611dba565b506040820151816002015560608201518160030190805190602001906105dc929190611dba565b506080820151816004015560a08201518160050160006101000a81548160ff02191690831515021790555060c08201518160050160016101000a81548173ffffffffffffffffffffffffffffffffffffffff021916908373ffffffffffffffffffffffffffffffffffffffff160217905550505060026000868152602001908152602001600020339080600181540180825580915050600190039060005260206000200160009091909190916101000a81548173ffffffffffffffffffffffffffffffffffffffff021916908373ffffffffffffffffffffffffffffffffffffffff1602179055505050505050565b6000600460003373ffffffffffffffffffffffffffffffffffffffff1673ffffffffffffffffffffffffffffffffffffffff16815260200190815260200160002060008373ffffffffffffffffffffffffffffffffffffffff1673ffffffffffffffffffffffffffffffffffffffff16815260200190815260200160002060006101000a81548160ff02191690831515021790555060005b600560003373ffffffffffffffffffffffffffffffffffffffff1673ffffffffffffffffffffffffffffffffffffffff168152602001908152602001600020805490508110156108ea578173ffffffffffffffffffffffffffffffffffffffff16600560003373ffffffffffffffffffffffffffffffffffffffff1673ffffffffffffffffffffffffffffffffffffffff168152602001908152602001600020828154811061081557610814612aa8565b5b9060005260206000200160000160009054906101000a900473ffffffffffffffffffffffffffffffffffffffff1673ffffffffffffffffffffffffffffffffffffffff1614156108d7576000600560003373ffffffffffffffffffffffffffffffffffffffff1673ffffffffffffffffffffffffffffffffffffffff16815260200190815260200160002082815481106108b2576108b1612aa8565b5b9060005260206000200160000160146101000a81548160ff0219169083151502179055505b80806108e290612ad7565b915050610763565b5050565b60606002600083815260200190815260200160002080548060200260200160405190810160405280929190818152602001828054801561098357602002820191906000526020600020905b8160009054906101000a900473ffffffffffffffffffffffffffffffffffffffff1673ffffffffffffffffffffffffffffffffffffffff1681526020019060010190808311610939575b50505050509050919050565b6000818154811061099f57600080fd5b90600052602060002090600602016000915090508060000154908060010180546109c890612b4f565b80601f01602080910402602001604051908101604052809291908181526020018280546109f490612b4f565b8015610a415780601f10610a1657610100808354040283529160200191610a41565b820191906000526020600020905b815481529060010190602001808311610a2457829003601f168201915b505050505090806002015490806003018054610a5c90612b4f565b80601f0160208091040260200160405190810160405280929190818152602001828054610a8890612b4f565b8015610ad55780601f10610aaa57610100808354040283529160200191610ad5565b820191906000526020600020905b815481529060010190602001808311610ab857829003601f168201915b5050505050908060040154908060050160009054906101000a900460ff16908060050160019054906101000a900473ffffffffffffffffffffffffffffffffffffffff16905087565b6060600560003373ffffffffffffffffffffffffffffffffffffffff1673ffffffffffffffffffffffffffffffffffffffff168152602001908152602001600020805480602002602001604051908101604052809291908181526020016000905b82821015610c1e578382906000526020600020016040518060400160405290816000820160009054906101000a900473ffffffffffffffffffffffffffffffffffffffff1673ffffffffffffffffffffffffffffffffffffffff1673ffffffffffffffffffffffffffffffffffffffff1681526020016000820160149054906101000a900460ff16151515158152505081526020019060010190610b7f565b50505050905090565b610c2f611e40565b6000600660003373ffffffffffffffffffffffffffffffffffffffff1673ffffffffffffffffffffffffffffffffffffffff168152602001908152602001600020805490509050600660003373ffffffffffffffffffffffffffffffffffffffff1673ffffffffffffffffffffffffffffffffffffffff168152602001908152602001600020600182610cc29190612b81565b81548110610cd357610cd2612aa8565b5b90600052602060002090600502016040518060a001604052908160008201548152602001600182018054610d0690612b4f565b80601f0160208091040260200160405190810160405280929190818152602001828054610d3290612b4f565b8015610d7f5780601f10610d5457610100808354040283529160200191610d7f565b820191906000526020600020905b815481529060010190602001808311610d6257829003601f168201915b50505050508152602001600282015481526020016003820160009054906101000a900473ffffffffffffffffffffffffffffffffffffffff1673ffffffffffffffffffffffffffffffffffffffff1673ffffffffffffffffffffffffffffffffffffffff1681526020016004820160009054906101000a900473ffffffffffffffffffffffffffffffffffffffff1673ffffffffffffffffffffffffffffffffffffffff1673ffffffffffffffffffffffffffffffffffffffff168152505091505090565b60005b600080549050811015610ff8578260008281548110610e6957610e68612aa8565b5b9060005260206000209060060201600001541415610fe55760016000808381548110610e9857610e97612aa8565b5b906000526020600020906006020160050160019054906101000a900473ffffffffffffffffffffffffffffffffffffffff1673ffffffffffffffffffffffffffffffffffffffff1673ffffffffffffffffffffffffffffffffffffffff16815260200190815260200160002060405180608001604052808581526020013373ffffffffffffffffffffffffffffffffffffffff1681526020018481526020016000151581525090806001815401808255809150506001900390600052602060002090600402016000909190919091506000820151816000015560208201518160010160006101000a81548173ffffffffffffffffffffffffffffffffffffffff021916908373ffffffffffffffffffffffffffffffffffffffff1602179055506040820151816002015560608201518160030160006101000a81548160ff02191690831515021790555050505b8080610ff090612ad7565b915050610e47565b505050565b670de0b6b3a7640000816110119190612bb5565b905060003373ffffffffffffffffffffffffffffffffffffffff168260405161103990612c40565b60006040518083038185875af1925050503d8060008114611076576040519150601f19603f3d011682016040523d82523d6000602084013e61107b565b606091505b50509050806110bf576040517f08c379a00000000000000000000000000000000000000000000000000000000081526004016110b690612ca1565b60405180910390fd5b60005b60008054905081101561114d5783600082815481106110e4576110e3612aa8565b5b906000526020600020906006020160000154141561113a57600080828154811061111157611110612aa8565b5b906000526020600020906006020160050160006101000a81548160ff0219169083151502179055505b808061114590612ad7565b9150506110c2565b50600080600090505b600160003373ffffffffffffffffffffffffffffffffffffffff1673ffffffffffffffffffffffffffffffffffffffff1681526020019081526020016000208054905081101561131d5784600160003373ffffffffffffffffffffffffffffffffffffffff1673ffffffffffffffffffffffffffffffffffffffff16815260200190815260200160002082815481106111f2576111f1612aa8565b5b906000526020600020906004020160000154141561130a57600160003373ffffffffffffffffffffffffffffffffffffffff1673ffffffffffffffffffffffffffffffffffffffff168152602001908152602001600020818154811061125b5761125a612aa8565b5b906000526020600020906004020160010160009054906101000a900473ffffffffffffffffffffffffffffffffffffffff16915060018060003373ffffffffffffffffffffffffffffffffffffffff1673ffffffffffffffffffffffffffffffffffffffff16815260200190815260200160002082815481106112e1576112e0612aa8565b5b906000526020600020906004020160030160006101000a81548160ff0219169083151502179055505b808061131590612ad7565b915050611156565b5060026000858152602001908152602001600020819080600181540180825580915050600190039060005260206000200160009091909190916101000a81548173ffffffffffffffffffffffffffffffffffffffff021916908373ffffffffffffffffffffffffffffffffffffffff160217905550600660008273ffffffffffffffffffffffffffffffffffffffff1673ffffffffffffffffffffffffffffffffffffffff1681526020019081526020016000206040518060a001604052808681526020016040518060400160405280600781526020017f302f302f3030300000000000000000000000000000000000000000000000000081525081526020018581526020018373ffffffffffffffffffffffffffffffffffffffff1681526020013373ffffffffffffffffffffffffffffffffffffffff1681525090806001815401808255809150506001900390600052602060002090600502016000909190919091506000820151816000015560208201518160010190805190602001906114a8929190611dba565b506040820151816002015560608201518160030160006101000a81548173ffffffffffffffffffffffffffffffffffffffff021916908373ffffffffffffffffffffffffffffffffffffffff16021790555060808201518160040160006101000a81548173ffffffffffffffffffffffffffffffffffffffff021916908373ffffffffffffffffffffffffffffffffffffffff160217905550505050505050565b60606000805480602002602001604051908101604052809291908181526020016000905b8282101561175257838290600052602060002090600602016040518060e0016040529081600082015481526020016001820180546115aa90612b4f565b80601f01602080910402602001604051908101604052809291908181526020018280546115d690612b4f565b80156116235780601f106115f857610100808354040283529160200191611623565b820191906000526020600020905b81548152906001019060200180831161160657829003601f168201915b505050505081526020016002820154815260200160038201805461164690612b4f565b80601f016020809104026020016040519081016040528092919081815260200182805461167290612b4f565b80156116bf5780601f10611694576101008083540402835291602001916116bf565b820191906000526020600020905b8154815290600101906020018083116116a257829003601f168201915b50505050508152602001600482015481526020016005820160009054906101000a900460ff161515151581526020016005820160019054906101000a900473ffffffffffffffffffffffffffffffffffffffff1673ffffffffffffffffffffffffffffffffffffffff1673ffffffffffffffffffffffffffffffffffffffff16815250508152602001906001019061156d565b50505050905090565b60603373ffffffffffffffffffffffffffffffffffffffff168273ffffffffffffffffffffffffffffffffffffffff16148061181d5750600460008373ffffffffffffffffffffffffffffffffffffffff1673ffffffffffffffffffffffffffffffffffffffff16815260200190815260200160002060003373ffffffffffffffffffffffffffffffffffffffff1673ffffffffffffffffffffffffffffffffffffffff16815260200190815260200160002060009054906101000a900460ff165b61185c576040517f08c379a000000000000000000000000000000000000000000000000000000000815260040161185390612d0d565b60405180910390fd5b600360008373ffffffffffffffffffffffffffffffffffffffff1673ffffffffffffffffffffffffffffffffffffffff168152602001908152602001600020805480602002602001604051908101604052809291908181526020016000905b828210156119675783829060005260206000200180546118da90612b4f565b80601f016020809104026020016040519081016040528092919081815260200182805461190690612b4f565b80156119535780601f1061192857610100808354040283529160200191611953565b820191906000526020600020905b81548152906001019060200180831161193657829003601f168201915b5050505050815260200190600101906118bb565b505050509050919050565b6001600460003373ffffffffffffffffffffffffffffffffffffffff1673ffffffffffffffffffffffffffffffffffffffff16815260200190815260200160002060008373ffffffffffffffffffffffffffffffffffffffff1673ffffffffffffffffffffffffffffffffffffffff16815260200190815260200160002060006101000a81548160ff021916908315150217905550600760003373ffffffffffffffffffffffffffffffffffffffff1673ffffffffffffffffffffffffffffffffffffffff16815260200190815260200160002060008273ffffffffffffffffffffffffffffffffffffffff1673ffffffffffffffffffffffffffffffffffffffff16815260200190815260200160002060009054906101000a900460ff1615611c265760005b600560003373ffffffffffffffffffffffffffffffffffffffff1673ffffffffffffffffffffffffffffffffffffffff16815260200190815260200160002080549050811015611c20578173ffffffffffffffffffffffffffffffffffffffff16600560003373ffffffffffffffffffffffffffffffffffffffff1673ffffffffffffffffffffffffffffffffffffffff1681526020019081526020016000208281548110611b4b57611b4a612aa8565b5b9060005260206000200160000160009054906101000a900473ffffffffffffffffffffffffffffffffffffffff1673ffffffffffffffffffffffffffffffffffffffff161415611c0d576001600560003373ffffffffffffffffffffffffffffffffffffffff1673ffffffffffffffffffffffffffffffffffffffff1681526020019081526020016000208281548110611be857611be7612aa8565b5b9060005260206000200160000160146101000a81548160ff0219169083151502179055505b8080611c1890612ad7565b915050611a99565b50611db7565b600560003373ffffffffffffffffffffffffffffffffffffffff1673ffffffffffffffffffffffffffffffffffffffff16815260200190815260200160002060405180604001604052808373ffffffffffffffffffffffffffffffffffffffff168152602001600115158152509080600181540180825580915050600190039060005260206000200160009091909190915060008201518160000160006101000a81548173ffffffffffffffffffffffffffffffffffffffff021916908373ffffffffffffffffffffffffffffffffffffffff16021790555060208201518160000160146101000a81548160ff02191690831515021790555050506001600760003373ffffffffffffffffffffffffffffffffffffffff1673ffffffffffffffffffffffffffffffffffffffff16815260200190815260200160002060008373ffffffffffffffffffffffffffffffffffffffff1673ffffffffffffffffffffffffffffffffffffffff16815260200190815260200160002060006101000a81548160ff0219169083151502179055505b50565b828054611dc690612b4f565b90600052602060002090601f016020900481019282611de85760008555611e2f565b82601f10611e0157805160ff1916838001178555611e2f565b82800160010185558215611e2f579182015b82811115611e2e578251825591602001919060010190611e13565b5b509050611e3c9190611e9b565b5090565b6040518060a00160405280600081526020016060815260200160008152602001600073ffffffffffffffffffffffffffffffffffffffff168152602001600073ffffffffffffffffffffffffffffffffffffffff1681525090565b5b80821115611eb4576000816000905550600101611e9c565b5090565b6000819050919050565b611ecb81611eb8565b82525050565b6000602082019050611ee66000830184611ec2565b92915050565b6000604051905090565b600080fd5b600080fd5b600073ffffffffffffffffffffffffffffffffffffffff82169050919050565b6000611f2b82611f00565b9050919050565b611f3b81611f20565b8114611f4657600080fd5b50565b600081359050611f5881611f32565b92915050565b600080fd5b600080fd5b6000601f19601f8301169050919050565b7f4e487b7100000000000000000000000000000000000000000000000000000000600052604160045260246000fd5b611fb182611f68565b810181811067ffffffffffffffff82111715611fd057611fcf611f79565b5b80604052505050565b6000611fe3611eec565b9050611fef8282611fa8565b919050565b600067ffffffffffffffff82111561200f5761200e611f79565b5b61201882611f68565b9050602081019050919050565b82818337600083830152505050565b600061204761204284611ff4565b611fd9565b90508281526020810184848401111561206357612062611f63565b5b61206e848285612025565b509392505050565b600082601f83011261208b5761208a611f5e565b5b813561209b848260208601612034565b91505092915050565b600080604083850312156120bb576120ba611ef6565b5b60006120c985828601611f49565b925050602083013567ffffffffffffffff8111156120ea576120e9611efb565b5b6120f685828601612076565b9150509250929050565b600081519050919050565b600082825260208201905092915050565b6000819050602082019050919050565b61213581611eb8565b82525050565b61214481611f20565b82525050565b60008115159050919050565b61215f8161214a565b82525050565b60808201600082015161217b600085018261212c565b50602082015161218e602085018261213b565b5060408201516121a1604085018261212c565b5060608201516121b46060850182612156565b50505050565b60006121c68383612165565b60808301905092915050565b6000602082019050919050565b60006121ea82612100565b6121f4818561210b565b93506121ff8361211c565b8060005b8381101561223057815161221788826121ba565b9750612222836121d2565b925050600181019050612203565b5085935050505092915050565b6000602082019050818103600083015261225781846121df565b905092915050565b61226881611eb8565b811461227357600080fd5b50565b6000813590506122858161225f565b92915050565b600080600080600060a086880312156122a7576122a6611ef6565b5b60006122b588828901612276565b955050602086013567ffffffffffffffff8111156122d6576122d5611efb565b5b6122e288828901612076565b94505060406122f388828901612276565b935050606086013567ffffffffffffffff81111561231457612313611efb565b5b61232088828901612076565b925050608061233188828901612276565b9150509295509295909350565b60006020828403121561235457612353611ef6565b5b600061236284828501611f49565b91505092915050565b60006020828403121561238157612380611ef6565b5b600061238f84828501612276565b91505092915050565b600081519050919050565b600082825260208201905092915050565b6000819050602082019050919050565b60006123d0838361213b565b60208301905092915050565b6000602082019050919050565b60006123f482612398565b6123fe81856123a3565b9350612409836123b4565b8060005b8381101561243a57815161242188826123c4565b975061242c836123dc565b92505060018101905061240d565b5085935050505092915050565b6000602082019050818103600083015261246181846123e9565b905092915050565b600081519050919050565b600082825260208201905092915050565b60005b838110156124a3578082015181840152602081019050612488565b838111156124b2576000848401525b50505050565b60006124c382612469565b6124cd8185612474565b93506124dd818560208601612485565b6124e681611f68565b840191505092915050565b6124fa8161214a565b82525050565b61250981611f20565b82525050565b600060e082019050612524600083018a611ec2565b818103602083015261253681896124b8565b90506125456040830188611ec2565b818103606083015261255781876124b8565b90506125666080830186611ec2565b61257360a08301856124f1565b61258060c0830184612500565b98975050505050505050565b600081519050919050565b600082825260208201905092915050565b6000819050602082019050919050565b6040820160008201516125ce600085018261213b565b5060208201516125e16020850182612156565b50505050565b60006125f383836125b8565b60408301905092915050565b6000602082019050919050565b60006126178261258c565b6126218185612597565b935061262c836125a8565b8060005b8381101561265d57815161264488826125e7565b975061264f836125ff565b925050600181019050612630565b5085935050505092915050565b60006020820190508181036000830152612684818461260c565b905092915050565b600082825260208201905092915050565b60006126a882612469565b6126b2818561268c565b93506126c2818560208601612485565b6126cb81611f68565b840191505092915050565b600060a0830160008301516126ee600086018261212c565b5060208301518482036020860152612706828261269d565b915050604083015161271b604086018261212c565b50606083015161272e606086018261213b565b506080830151612741608086018261213b565b508091505092915050565b6000602082019050818103600083015261276681846126d6565b905092915050565b6000806040838503121561278557612784611ef6565b5b600061279385828601612276565b92505060206127a485828601612276565b9150509250929050565b600081519050919050565b600082825260208201905092915050565b6000819050602082019050919050565b600060e0830160008301516127f2600086018261212c565b506020830151848203602086015261280a828261269d565b915050604083015161281f604086018261212c565b5060608301518482036060860152612837828261269d565b915050608083015161284c608086018261212c565b5060a083015161285f60a0860182612156565b5060c083015161287260c086018261213b565b508091505092915050565b600061288983836127da565b905092915050565b6000602082019050919050565b60006128a9826127ae565b6128b381856127b9565b9350836020820285016128c5856127ca565b8060005b8581101561290157848403895281516128e2858261287d565b94506128ed83612891565b925060208a019950506001810190506128c9565b50829750879550505050505092915050565b6000602082019050818103600083015261292d818461289e565b905092915050565b600081519050919050565b600082825260208201905092915050565b6000819050602082019050919050565b600061296d838361269d565b905092915050565b6000602082019050919050565b600061298d82612935565b6129978185612940565b9350836020820285016129a985612951565b8060005b858110156129e557848403895281516129c68582612961565b94506129d183612975565b925060208a019950506001810190506129ad565b50829750879550505050505092915050565b60006020820190508181036000830152612a118184612982565b905092915050565b7f4e487b7100000000000000000000000000000000000000000000000000000000600052601260045260246000fd5b7f4e487b7100000000000000000000000000000000000000000000000000000000600052601160045260246000fd5b6000612a8282611eb8565b9150612a8d83611eb8565b925082612a9d57612a9c612a19565b5b828204905092915050565b7f4e487b7100000000000000000000000000000000000000000000000000000000600052603260045260246000fd5b6000612ae282611eb8565b91507fffffffffffffffffffffffffffffffffffffffffffffffffffffffffffffffff821415612b1557612b14612a48565b5b600182019050919050565b7f4e487b7100000000000000000000000000000000000000000000000000000000600052602260045260246000fd5b60006002820490506001821680612b6757607f821691505b60208210811415612b7b57612b7a612b20565b5b50919050565b6000612b8c82611eb8565b9150612b9783611eb8565b925082821015612baa57612ba9612a48565b5b828203905092915050565b6000612bc082611eb8565b9150612bcb83611eb8565b9250817fffffffffffffffffffffffffffffffffffffffffffffffffffffffffffffffff0483118215151615612c0457612c03612a48565b5b828202905092915050565b600081905092915050565b50565b6000612c2a600083612c0f565b9150612c3582612c1a565b600082019050919050565b6000612c4b82612c1d565b9150819050919050565b7f4661696c656420746f207472616e736665720000000000000000000000000000600082015250565b6000612c8b601283612474565b9150612c9682612c55565b602082019050919050565b60006020820190508181036000830152612cba81612c7e565b9050919050565b7f596f7520646f6e27742068617665206163636573730000000000000000000000600082015250565b6000612cf7601583612474565b9150612d0282612cc1565b602082019050919050565b60006020820190508181036000830152612d2681612cea565b905091905056fea264697066735822122060ee16f1ad12eb4afb4409a195cb757ae984e2c8ab4b9550968bf3d4427487ab64736f6c63430008090033",
  "linkReferences": {},
  "deployedLinkReferences": {}
}